{
  "_format": "hh-sol-artifact-1",
  "contractName": "GoldClaimRegistry",
  "sourceName": "smart_contract/Physical_Gold_Claim_EMASX.sol",
  "abi": [
    {
      "inputs": [
        {
          "internalType": "address",
          "name": "_emasx",
          "type": "address"
        }
      ],
      "stateMutability": "nonpayable",
      "type": "constructor"
    },
    {
      "anonymous": false,
      "inputs": [
        {
          "indexed": true,
          "internalType": "address",
          "name": "user",
          "type": "address"
        },
        {
          "indexed": false,
          "internalType": "uint256",
          "name": "grams",
          "type": "uint256"
        },
        {
          "indexed": false,
          "internalType": "uint256",
          "name": "timestamp",
          "type": "uint256"
        }
      ],
      "name": "GoldClaimed",
      "type": "event"
    },
    {
      "inputs": [
        {
          "internalType": "uint256",
          "name": "grams",
          "type": "uint256"
        }
      ],
      "name": "claim",
      "outputs": [],
      "stateMutability": "nonpayable",
      "type": "function"
    },
    {
      "inputs": [],
      "name": "emasx",
      "outputs": [
        {
          "internalType": "contract IEMASX",
          "name": "",
          "type": "address"
        }
      ],
      "stateMutability": "view",
      "type": "function"
    }
  ],
  "bytecode": "0x608060405234801561001057600080fd5b5060405161044a38038061044a833981810160405281019061003291906100db565b806000806101000a81548173ffffffffffffffffffffffffffffffffffffffff021916908373ffffffffffffffffffffffffffffffffffffffff16021790555050610108565b600080fd5b600073ffffffffffffffffffffffffffffffffffffffff82169050919050565b60006100a88261007d565b9050919050565b6100b88161009d565b81146100c357600080fd5b50565b6000815190506100d5816100af565b92915050565b6000602082840312156100f1576100f0610078565b5b60006100ff848285016100c6565b91505092915050565b610333806101176000396000f3fe608060405234801561001057600080fd5b50600436106100365760003560e01c8063379607f51461003b5780636d5f68fd14610057575b600080fd5b610055600480360381019061005091906101b4565b610075565b005b61005f610155565b60405161006c9190610260565b60405180910390f35b60008054906101000a900473ffffffffffffffffffffffffffffffffffffffff1673ffffffffffffffffffffffffffffffffffffffff16639dc29fac33836040518363ffffffff1660e01b81526004016100d09291906102ab565b600060405180830381600087803b1580156100ea57600080fd5b505af11580156100fe573d6000803e3d6000fd5b505050503373ffffffffffffffffffffffffffffffffffffffff167ff2fad89e8a1827458553a1680b92443fa417e981b898ed97ecf2c17983a57c2d824260405161014a9291906102d4565b60405180910390a250565b60008054906101000a900473ffffffffffffffffffffffffffffffffffffffff1681565b600080fd5b6000819050919050565b6101918161017e565b811461019c57600080fd5b50565b6000813590506101ae81610188565b92915050565b6000602082840312156101ca576101c9610179565b5b60006101d88482850161019f565b91505092915050565b600073ffffffffffffffffffffffffffffffffffffffff82169050919050565b6000819050919050565b600061022661022161021c846101e1565b610201565b6101e1565b9050919050565b60006102388261020b565b9050919050565b600061024a8261022d565b9050919050565b61025a8161023f565b82525050565b60006020820190506102756000830184610251565b92915050565b6000610286826101e1565b9050919050565b6102968161027b565b82525050565b6102a58161017e565b82525050565b60006040820190506102c0600083018561028d565b6102cd602083018461029c565b9392505050565b60006040820190506102e9600083018561029c565b6102f6602083018461029c565b939250505056fea26469706673582212201ee2504c274e703f966351d05e9ac05500d23bbfd460321963fed000783f18dc64736f6c63430008140033",
  "linkReferences": {},
  "deployedLinkReferences": {}
}