{
  "_format": "hh-sol-artifact-1",
  "contractName": "EMASXLending",
  "sourceName": "smart_contract/Borrowing_EMASX.sol",
  "abi": [
    {
      "inputs": [
        {
          "internalType": "address",
          "name": "_idrx",
          "type": "address"
        },
        {
          "internalType": "address",
          "name": "_emasx",
          "type": "address"
        },
        {
          "internalType": "address",
          "name": "_oracle",
          "type": "address"
        }
      ],
      "stateMutability": "nonpayable",
      "type": "constructor"
    },
    {
      "inputs": [],
      "name": "LTV",
      "outputs": [
        {
          "internalType": "uint256",
          "name": "",
          "type": "uint256"
        }
      ],
      "stateMutability": "view",
      "type": "function"
    },
    {
      "inputs": [
        {
          "internalType": "uint256",
          "name": "amount",
          "type": "uint256"
        }
      ],
      "name": "borrow",
      "outputs": [],
      "stateMutability": "nonpayable",
      "type": "function"
    },
    {
      "inputs": [
        {
          "internalType": "uint256",
          "name": "amount",
          "type": "uint256"
        }
      ],
      "name": "deposit",
      "outputs": [],
      "stateMutability": "nonpayable",
      "type": "function"
    },
    {
      "inputs": [],
      "name": "emasx",
      "outputs": [
        {
          "internalType": "contract IEMASX",
          "name": "",
          "type": "address"
        }
      ],
      "stateMutability": "view",
      "type": "function"
    },
    {
      "inputs": [],
      "name": "idrx",
      "outputs": [
        {
          "internalType": "contract IERC20",
          "name": "",
          "type": "address"
        }
      ],
      "stateMutability": "view",
      "type": "function"
    },
    {
      "inputs": [
        {
          "internalType": "address",
          "name": "user",
          "type": "address"
        }
      ],
      "name": "liquidate",
      "outputs": [],
      "stateMutability": "nonpayable",
      "type": "function"
    },
    {
      "inputs": [],
      "name": "oracle",
      "outputs": [
        {
          "internalType": "contract IOracle",
          "name": "",
          "type": "address"
        }
      ],
      "stateMutability": "view",
      "type": "function"
    },
    {
      "inputs": [
        {
          "internalType": "address",
          "name": "",
          "type": "address"
        }
      ],
      "name": "positions",
      "outputs": [
        {
          "internalType": "uint256",
          "name": "collateral",
          "type": "uint256"
        },
        {
          "internalType": "uint256",
          "name": "debt",
          "type": "uint256"
        }
      ],
      "stateMutability": "view",
      "type": "function"
    },
    {
      "inputs": [
        {
          "internalType": "uint256",
          "name": "amount",
          "type": "uint256"
        }
      ],
      "name": "repay",
      "outputs": [],
      "stateMutability": "nonpayable",
      "type": "function"
    },
    {
      "inputs": [
        {
          "internalType": "uint256",
          "name": "amount",
          "type": "uint256"
        }
      ],
      "name": "withdraw",
      "outputs": [],
      "stateMutability": "nonpayable",
      "type": "function"
    }
  ],
  "bytecode": "0x60806040523480156200001157600080fd5b50604051620012af380380620012af83398181016040528101906200003791906200016c565b826000806101000a81548173ffffffffffffffffffffffffffffffffffffffff021916908373ffffffffffffffffffffffffffffffffffffffff16021790555081600160006101000a81548173ffffffffffffffffffffffffffffffffffffffff021916908373ffffffffffffffffffffffffffffffffffffffff16021790555080600260006101000a81548173ffffffffffffffffffffffffffffffffffffffff021916908373ffffffffffffffffffffffffffffffffffffffff160217905550505050620001c8565b600080fd5b600073ffffffffffffffffffffffffffffffffffffffff82169050919050565b6000620001348262000107565b9050919050565b620001468162000127565b81146200015257600080fd5b50565b60008151905062000166816200013b565b92915050565b60008060006060848603121562000188576200018762000102565b5b6000620001988682870162000155565b9350506020620001ab8682870162000155565b9250506040620001be8682870162000155565b9150509250925092565b6110d780620001d86000396000f3fe608060405234801561001057600080fd5b506004361061009e5760003560e01c80636d5f68fd116100665780636d5f68fd146101465780637dc0d1d014610164578063b6b55f2514610182578063c5ebeaec1461019e578063e172c609146101ba5761009e565b80632e1a7d4d146100a35780632f865568146100bf578063371fd8e6146100db57806355f57510146100f757806362965d8e14610128575b600080fd5b6100bd60048036038101906100b89190610b00565b6101d8565b005b6100d960048036038101906100d49190610b8b565b6103f7565b005b6100f560048036038101906100f09190610b00565b610601565b005b610111600480360381019061010c9190610b8b565b610704565b60405161011f929190610bc7565b60405180910390f35b610130610728565b60405161013d9190610bf0565b60405180910390f35b61014e61072d565b60405161015b9190610c6a565b60405180910390f35b61016c610753565b6040516101799190610ca6565b60405180910390f35b61019c60048036038101906101979190610b00565b610779565b005b6101b860048036038101906101b39190610b00565b610878565b005b6101c2610aa1565b6040516101cf9190610ce2565b60405180910390f35b6000600360003373ffffffffffffffffffffffffffffffffffffffff1673ffffffffffffffffffffffffffffffffffffffff16815260200190815260200160002090506000600260009054906101000a900473ffffffffffffffffffffffffffffffffffffffff1673ffffffffffffffffffffffffffffffffffffffff1663da6bae106040518163ffffffff1660e01b8152600401602060405180830381865afa15801561028a573d6000803e3d6000fd5b505050506040513d601f19601f820116820180604052508101906102ae9190610d12565b905060008383600001546102c29190610d6e565b90506000670de0b6b3a76400006064603c85856102df9190610da2565b6102e99190610da2565b6102f39190610e13565b6102fd9190610e13565b90508084600101541115610346576040517f08c379a000000000000000000000000000000000000000000000000000000000815260040161033d90610ea1565b60405180910390fd5b818460000181905550600160009054906101000a900473ffffffffffffffffffffffffffffffffffffffff1673ffffffffffffffffffffffffffffffffffffffff1663a9059cbb33876040518363ffffffff1660e01b81526004016103ac929190610ed0565b6020604051808303816000875af11580156103cb573d6000803e3d6000fd5b505050506040513d601f19601f820116820180604052508101906103ef9190610f31565b505050505050565b6000600360008373ffffffffffffffffffffffffffffffffffffffff1673ffffffffffffffffffffffffffffffffffffffff16815260200190815260200160002090506000600260009054906101000a900473ffffffffffffffffffffffffffffffffffffffff1673ffffffffffffffffffffffffffffffffffffffff1663da6bae106040518163ffffffff1660e01b8152600401602060405180830381865afa1580156104a9573d6000803e3d6000fd5b505050506040513d601f19601f820116820180604052508101906104cd9190610d12565b90506000670de0b6b3a76400006064603c8486600001546104ee9190610da2565b6104f89190610da2565b6105029190610e13565b61050c9190610e13565b905080836001015411610554576040517f08c379a000000000000000000000000000000000000000000000000000000000815260040161054b90610faa565b60405180910390fd5b600160009054906101000a900473ffffffffffffffffffffffffffffffffffffffff1673ffffffffffffffffffffffffffffffffffffffff16639dc29fac3085600001546040518363ffffffff1660e01b81526004016105b5929190610ed0565b600060405180830381600087803b1580156105cf57600080fd5b505af11580156105e3573d6000803e3d6000fd5b50505050600083600001819055506000836001018190555050505050565b6000600360003373ffffffffffffffffffffffffffffffffffffffff1673ffffffffffffffffffffffffffffffffffffffff168152602001908152602001600020905060008054906101000a900473ffffffffffffffffffffffffffffffffffffffff1673ffffffffffffffffffffffffffffffffffffffff166323b872dd3330856040518463ffffffff1660e01b81526004016106a193929190610fca565b6020604051808303816000875af11580156106c0573d6000803e3d6000fd5b505050506040513d601f19601f820116820180604052508101906106e49190610f31565b50818160010160008282546106f99190610d6e565b925050819055505050565b60036020528060005260406000206000915090508060000154908060010154905082565b603c81565b600160009054906101000a900473ffffffffffffffffffffffffffffffffffffffff1681565b600260009054906101000a900473ffffffffffffffffffffffffffffffffffffffff1681565b600160009054906101000a900473ffffffffffffffffffffffffffffffffffffffff1673ffffffffffffffffffffffffffffffffffffffff166323b872dd3330846040518463ffffffff1660e01b81526004016107d893929190610fca565b6020604051808303816000875af11580156107f7573d6000803e3d6000fd5b505050506040513d601f19601f8201168201806040525081019061081b9190610f31565b5080600360003373ffffffffffffffffffffffffffffffffffffffff1673ffffffffffffffffffffffffffffffffffffffff168152602001908152602001600020600001600082825461086e9190611001565b9250508190555050565b6000600360003373ffffffffffffffffffffffffffffffffffffffff1673ffffffffffffffffffffffffffffffffffffffff16815260200190815260200160002090506000600260009054906101000a900473ffffffffffffffffffffffffffffffffffffffff1673ffffffffffffffffffffffffffffffffffffffff1663da6bae106040518163ffffffff1660e01b8152600401602060405180830381865afa15801561092a573d6000803e3d6000fd5b505050506040513d601f19601f8201168201806040525081019061094e9190610d12565b90506000670de0b6b3a76400006064603c84866000015461096f9190610da2565b6109799190610da2565b6109839190610e13565b61098d9190610e13565b9050808484600101546109a09190611001565b11156109e1576040517f08c379a00000000000000000000000000000000000000000000000000000000081526004016109d890611081565b60405180910390fd5b838360010160008282546109f59190611001565b9250508190555060008054906101000a900473ffffffffffffffffffffffffffffffffffffffff1673ffffffffffffffffffffffffffffffffffffffff1663a9059cbb33866040518363ffffffff1660e01b8152600401610a57929190610ed0565b6020604051808303816000875af1158015610a76573d6000803e3d6000fd5b505050506040513d601f19601f82011682018060405250810190610a9a9190610f31565b5050505050565b60008054906101000a900473ffffffffffffffffffffffffffffffffffffffff1681565b600080fd5b6000819050919050565b610add81610aca565b8114610ae857600080fd5b50565b600081359050610afa81610ad4565b92915050565b600060208284031215610b1657610b15610ac5565b5b6000610b2484828501610aeb565b91505092915050565b600073ffffffffffffffffffffffffffffffffffffffff82169050919050565b6000610b5882610b2d565b9050919050565b610b6881610b4d565b8114610b7357600080fd5b50565b600081359050610b8581610b5f565b92915050565b600060208284031215610ba157610ba0610ac5565b5b6000610baf84828501610b76565b91505092915050565b610bc181610aca565b82525050565b6000604082019050610bdc6000830185610bb8565b610be96020830184610bb8565b9392505050565b6000602082019050610c056000830184610bb8565b92915050565b6000819050919050565b6000610c30610c2b610c2684610b2d565b610c0b565b610b2d565b9050919050565b6000610c4282610c15565b9050919050565b6000610c5482610c37565b9050919050565b610c6481610c49565b82525050565b6000602082019050610c7f6000830184610c5b565b92915050565b6000610c9082610c37565b9050919050565b610ca081610c85565b82525050565b6000602082019050610cbb6000830184610c97565b92915050565b6000610ccc82610c37565b9050919050565b610cdc81610cc1565b82525050565b6000602082019050610cf76000830184610cd3565b92915050565b600081519050610d0c81610ad4565b92915050565b600060208284031215610d2857610d27610ac5565b5b6000610d3684828501610cfd565b91505092915050565b7f4e487b7100000000000000000000000000000000000000000000000000000000600052601160045260246000fd5b6000610d7982610aca565b9150610d8483610aca565b9250828203905081811115610d9c57610d9b610d3f565b5b92915050565b6000610dad82610aca565b9150610db883610aca565b9250828202610dc681610aca565b91508282048414831517610ddd57610ddc610d3f565b5b5092915050565b7f4e487b7100000000000000000000000000000000000000000000000000000000600052601260045260246000fd5b6000610e1e82610aca565b9150610e2983610aca565b925082610e3957610e38610de4565b5b828204905092915050565b600082825260208201905092915050565b7f556e736166650000000000000000000000000000000000000000000000000000600082015250565b6000610e8b600683610e44565b9150610e9682610e55565b602082019050919050565b60006020820190508181036000830152610eba81610e7e565b9050919050565b610eca81610b4d565b82525050565b6000604082019050610ee56000830185610ec1565b610ef26020830184610bb8565b9392505050565b60008115159050919050565b610f0e81610ef9565b8114610f1957600080fd5b50565b600081519050610f2b81610f05565b92915050565b600060208284031215610f4757610f46610ac5565b5b6000610f5584828501610f1c565b91505092915050565b7f4865616c74687900000000000000000000000000000000000000000000000000600082015250565b6000610f94600783610e44565b9150610f9f82610f5e565b602082019050919050565b60006020820190508181036000830152610fc381610f87565b9050919050565b6000606082019050610fdf6000830186610ec1565b610fec6020830185610ec1565b610ff96040830184610bb8565b949350505050565b600061100c82610aca565b915061101783610aca565b925082820190508082111561102f5761102e610d3f565b5b92915050565b7f4c54562065786365656465640000000000000000000000000000000000000000600082015250565b600061106b600c83610e44565b915061107682611035565b602082019050919050565b6000602082019050818103600083015261109a8161105e565b905091905056fea2646970667358221220068becf9cfd516c157741d15fef0e267bdf4f986c19b00eea3dcf6ecedb9795964736f6c63430008140033",
  "linkReferences": {},
  "deployedLinkReferences": {}
}