{
  "_format": "hh-sol-artifact-1",
  "contractName": "GoldPriceOracle",
  "sourceName": "smart_contract/GoldPriceOracle.sol",
  "abi": [
    {
      "inputs": [
        {
          "internalType": "uint256",
          "name": "_initialPrice",
          "type": "uint256"
        }
      ],
      "stateMutability": "nonpayable",
      "type": "constructor"
    },
    {
      "inputs": [],
      "name": "AccessControlBadConfirmation",
      "type": "error"
    },
    {
      "inputs": [
        {
          "internalType": "address",
          "name": "account",
          "type": "address"
        },
        {
          "internalType": "bytes32",
          "name": "neededRole",
          "type": "bytes32"
        }
      ],
      "name": "AccessControlUnauthorizedAccount",
      "type": "error"
    },
    {
      "anonymous": false,
      "inputs": [
        {
          "indexed": true,
          "internalType": "bytes32",
          "name": "role",
          "type": "bytes32"
        },
        {
          "indexed": true,
          "internalType": "bytes32",
          "name": "previousAdminRole",
          "type": "bytes32"
        },
        {
          "indexed": true,
          "internalType": "bytes32",
          "name": "newAdminRole",
          "type": "bytes32"
        }
      ],
      "name": "RoleAdminChanged",
      "type": "event"
    },
    {
      "anonymous": false,
      "inputs": [
        {
          "indexed": true,
          "internalType": "bytes32",
          "name": "role",
          "type": "bytes32"
        },
        {
          "indexed": true,
          "internalType": "address",
          "name": "account",
          "type": "address"
        },
        {
          "indexed": true,
          "internalType": "address",
          "name": "sender",
          "type": "address"
        }
      ],
      "name": "RoleGranted",
      "type": "event"
    },
    {
      "anonymous": false,
      "inputs": [
        {
          "indexed": true,
          "internalType": "bytes32",
          "name": "role",
          "type": "bytes32"
        },
        {
          "indexed": true,
          "internalType": "address",
          "name": "account",
          "type": "address"
        },
        {
          "indexed": true,
          "internalType": "address",
          "name": "sender",
          "type": "address"
        }
      ],
      "name": "RoleRevoked",
      "type": "event"
    },
    {
      "inputs": [],
      "name": "DEFAULT_ADMIN_ROLE",
      "outputs": [
        {
          "internalType": "bytes32",
          "name": "",
          "type": "bytes32"
        }
      ],
      "stateMutability": "view",
      "type": "function"
    },
    {
      "inputs": [],
      "name": "UPDATER_ROLE",
      "outputs": [
        {
          "internalType": "bytes32",
          "name": "",
          "type": "bytes32"
        }
      ],
      "stateMutability": "view",
      "type": "function"
    },
    {
      "inputs": [],
      "name": "chainlinkFeed",
      "outputs": [
        {
          "internalType": "contract AggregatorV3Interface",
          "name": "",
          "type": "address"
        }
      ],
      "stateMutability": "view",
      "type": "function"
    },
    {
      "inputs": [],
      "name": "getGoldPrice",
      "outputs": [
        {
          "internalType": "uint256",
          "name": "",
          "type": "uint256"
        }
      ],
      "stateMutability": "view",
      "type": "function"
    },
    {
      "inputs": [
        {
          "internalType": "bytes32",
          "name": "role",
          "type": "bytes32"
        }
      ],
      "name": "getRoleAdmin",
      "outputs": [
        {
          "internalType": "bytes32",
          "name": "",
          "type": "bytes32"
        }
      ],
      "stateMutability": "view",
      "type": "function"
    },
    {
      "inputs": [
        {
          "internalType": "bytes32",
          "name": "role",
          "type": "bytes32"
        },
        {
          "internalType": "address",
          "name": "account",
          "type": "address"
        }
      ],
      "name": "grantRole",
      "outputs": [],
      "stateMutability": "nonpayable",
      "type": "function"
    },
    {
      "inputs": [
        {
          "internalType": "bytes32",
          "name": "role",
          "type": "bytes32"
        },
        {
          "internalType": "address",
          "name": "account",
          "type": "address"
        }
      ],
      "name": "hasRole",
      "outputs": [
        {
          "internalType": "bool",
          "name": "",
          "type": "bool"
        }
      ],
      "stateMutability": "view",
      "type": "function"
    },
    {
      "inputs": [],
      "name": "manualPrice",
      "outputs": [
        {
          "internalType": "uint256",
          "name": "",
          "type": "uint256"
        }
      ],
      "stateMutability": "view",
      "type": "function"
    },
    {
      "inputs": [
        {
          "internalType": "bytes32",
          "name": "role",
          "type": "bytes32"
        },
        {
          "internalType": "address",
          "name": "callerConfirmation",
          "type": "address"
        }
      ],
      "name": "renounceRole",
      "outputs": [],
      "stateMutability": "nonpayable",
      "type": "function"
    },
    {
      "inputs": [
        {
          "internalType": "bytes32",
          "name": "role",
          "type": "bytes32"
        },
        {
          "internalType": "address",
          "name": "account",
          "type": "address"
        }
      ],
      "name": "revokeRole",
      "outputs": [],
      "stateMutability": "nonpayable",
      "type": "function"
    },
    {
      "inputs": [
        {
          "internalType": "address",
          "name": "_feed",
          "type": "address"
        }
      ],
      "name": "setChainlinkFeed",
      "outputs": [],
      "stateMutability": "nonpayable",
      "type": "function"
    },
    {
      "inputs": [
        {
          "internalType": "uint256",
          "name": "_price",
          "type": "uint256"
        }
      ],
      "name": "setManualPrice",
      "outputs": [],
      "stateMutability": "nonpayable",
      "type": "function"
    },
    {
      "inputs": [
        {
          "internalType": "bytes4",
          "name": "interfaceId",
          "type": "bytes4"
        }
      ],
      "name": "supportsInterface",
      "outputs": [
        {
          "internalType": "bool",
          "name": "",
          "type": "bool"
        }
      ],
      "stateMutability": "view",
      "type": "function"
    }
  ],
  "bytecode": "0x60806040523480156200001157600080fd5b506040516200100638038062001006833981810160405281019062000037919062000243565b6200004c6000801b336200008e60201b60201c565b506200007f7f73e573f9566d61418a34d5de3ff49360f9c51fec37f7486551670290f6285dab336200008e60201b60201c565b50806001819055505062000275565b6000620000a283836200019160201b60201c565b6200018657600160008085815260200190815260200160002060000160008473ffffffffffffffffffffffffffffffffffffffff1673ffffffffffffffffffffffffffffffffffffffff16815260200190815260200160002060006101000a81548160ff02191690831515021790555062000122620001fb60201b60201c565b73ffffffffffffffffffffffffffffffffffffffff168273ffffffffffffffffffffffffffffffffffffffff16847f2f8788117e7eff1d82e926ec794901d17c78024a50270940304540a733656f0d60405160405180910390a4600190506200018b565b600090505b92915050565b600080600084815260200190815260200160002060000160008373ffffffffffffffffffffffffffffffffffffffff1673ffffffffffffffffffffffffffffffffffffffff16815260200190815260200160002060009054906101000a900460ff16905092915050565b600033905090565b600080fd5b6000819050919050565b6200021d8162000208565b81146200022957600080fd5b50565b6000815190506200023d8162000212565b92915050565b6000602082840312156200025c576200025b62000203565b5b60006200026c848285016200022c565b91505092915050565b610d8180620002856000396000f3fe608060405234801561001057600080fd5b50600436106100cf5760003560e01c80638ea121a31161008c578063a2c9d63011610066578063a2c9d63014610212578063d547741f14610230578063d7a718681461024c578063da6bae1014610268576100cf565b80638ea121a3146101a857806391d14854146101c4578063a217fddf146101f4576100cf565b806301ffc9a7146100d4578063248a9ca3146101045780632f2ff15d1461013457806336568abe1461015057806347e633801461016c5780637dbdf1f51461018a575b600080fd5b6100ee60048036038101906100e99190610949565b610286565b6040516100fb9190610991565b60405180910390f35b61011e600480360381019061011991906109e2565b610300565b60405161012b9190610a1e565b60405180910390f35b61014e60048036038101906101499190610a97565b61031f565b005b61016a60048036038101906101659190610a97565b610341565b005b6101746103bc565b6040516101819190610a1e565b60405180910390f35b6101926103e0565b60405161019f9190610b36565b60405180910390f35b6101c260048036038101906101bd9190610b51565b610406565b005b6101de60048036038101906101d99190610a97565b610458565b6040516101eb9190610991565b60405180910390f35b6101fc6104c2565b6040516102099190610a1e565b60405180910390f35b61021a6104c9565b6040516102279190610b97565b60405180910390f35b61024a60048036038101906102459190610a97565b6104cf565b005b61026660048036038101906102619190610bde565b6104f1565b005b610270610526565b60405161027d9190610b97565b60405180910390f35b60007f7965db0b000000000000000000000000000000000000000000000000000000007bffffffffffffffffffffffffffffffffffffffffffffffffffffffff1916827bffffffffffffffffffffffffffffffffffffffffffffffffffffffff191614806102f957506102f882610632565b5b9050919050565b6000806000838152602001908152602001600020600101549050919050565b61032882610300565b6103318161069c565b61033b83836106b0565b50505050565b6103496107a1565b73ffffffffffffffffffffffffffffffffffffffff168173ffffffffffffffffffffffffffffffffffffffff16146103ad576040517f6697b23200000000000000000000000000000000000000000000000000000000815260040160405180910390fd5b6103b782826107a9565b505050565b7f73e573f9566d61418a34d5de3ff49360f9c51fec37f7486551670290f6285dab81565b600260009054906101000a900473ffffffffffffffffffffffffffffffffffffffff1681565b6000801b6104138161069c565b81600260006101000a81548173ffffffffffffffffffffffffffffffffffffffff021916908373ffffffffffffffffffffffffffffffffffffffff1602179055505050565b600080600084815260200190815260200160002060000160008373ffffffffffffffffffffffffffffffffffffffff1673ffffffffffffffffffffffffffffffffffffffff16815260200190815260200160002060009054906101000a900460ff16905092915050565b6000801b81565b60015481565b6104d882610300565b6104e18161069c565b6104eb83836107a9565b50505050565b7f73e573f9566d61418a34d5de3ff49360f9c51fec37f7486551670290f6285dab61051b8161069c565b816001819055505050565b60008073ffffffffffffffffffffffffffffffffffffffff16600260009054906101000a900473ffffffffffffffffffffffffffffffffffffffff1673ffffffffffffffffffffffffffffffffffffffff161461062957600260009054906101000a900473ffffffffffffffffffffffffffffffffffffffff1673ffffffffffffffffffffffffffffffffffffffff1663feaf968c6040518163ffffffff1660e01b815260040160a060405180830381865afa92505050801561060757506040513d601f19601f820116820180604052508101906106049190610c98565b60015b1561062857600084131561062257839550505050505061062f565b50505050505b5b60015490505b90565b60007f01ffc9a7000000000000000000000000000000000000000000000000000000007bffffffffffffffffffffffffffffffffffffffffffffffffffffffff1916827bffffffffffffffffffffffffffffffffffffffffffffffffffffffff1916149050919050565b6106ad816106a86107a1565b61089b565b50565b60006106bc8383610458565b61079657600160008085815260200190815260200160002060000160008473ffffffffffffffffffffffffffffffffffffffff1673ffffffffffffffffffffffffffffffffffffffff16815260200190815260200160002060006101000a81548160ff0219169083151502179055506107336107a1565b73ffffffffffffffffffffffffffffffffffffffff168273ffffffffffffffffffffffffffffffffffffffff16847f2f8788117e7eff1d82e926ec794901d17c78024a50270940304540a733656f0d60405160405180910390a46001905061079b565b600090505b92915050565b600033905090565b60006107b58383610458565b1561089057600080600085815260200190815260200160002060000160008473ffffffffffffffffffffffffffffffffffffffff1673ffffffffffffffffffffffffffffffffffffffff16815260200190815260200160002060006101000a81548160ff02191690831515021790555061082d6107a1565b73ffffffffffffffffffffffffffffffffffffffff168273ffffffffffffffffffffffffffffffffffffffff16847ff6391f5c32d9c69d2a47ea670b442974b53935d1edc7fd64eb21e047a839171b60405160405180910390a460019050610895565b600090505b92915050565b6108a58282610458565b6108e85780826040517fe2517d3f0000000000000000000000000000000000000000000000000000000081526004016108df929190610d22565b60405180910390fd5b5050565b600080fd5b60007fffffffff0000000000000000000000000000000000000000000000000000000082169050919050565b610926816108f1565b811461093157600080fd5b50565b6000813590506109438161091d565b92915050565b60006020828403121561095f5761095e6108ec565b5b600061096d84828501610934565b91505092915050565b60008115159050919050565b61098b81610976565b82525050565b60006020820190506109a66000830184610982565b92915050565b6000819050919050565b6109bf816109ac565b81146109ca57600080fd5b50565b6000813590506109dc816109b6565b92915050565b6000602082840312156109f8576109f76108ec565b5b6000610a06848285016109cd565b91505092915050565b610a18816109ac565b82525050565b6000602082019050610a336000830184610a0f565b92915050565b600073ffffffffffffffffffffffffffffffffffffffff82169050919050565b6000610a6482610a39565b9050919050565b610a7481610a59565b8114610a7f57600080fd5b50565b600081359050610a9181610a6b565b92915050565b60008060408385031215610aae57610aad6108ec565b5b6000610abc858286016109cd565b9250506020610acd85828601610a82565b9150509250929050565b6000819050919050565b6000610afc610af7610af284610a39565b610ad7565b610a39565b9050919050565b6000610b0e82610ae1565b9050919050565b6000610b2082610b03565b9050919050565b610b3081610b15565b82525050565b6000602082019050610b4b6000830184610b27565b92915050565b600060208284031215610b6757610b666108ec565b5b6000610b7584828501610a82565b91505092915050565b6000819050919050565b610b9181610b7e565b82525050565b6000602082019050610bac6000830184610b88565b92915050565b610bbb81610b7e565b8114610bc657600080fd5b50565b600081359050610bd881610bb2565b92915050565b600060208284031215610bf457610bf36108ec565b5b6000610c0284828501610bc9565b91505092915050565b600069ffffffffffffffffffff82169050919050565b610c2a81610c0b565b8114610c3557600080fd5b50565b600081519050610c4781610c21565b92915050565b6000819050919050565b610c6081610c4d565b8114610c6b57600080fd5b50565b600081519050610c7d81610c57565b92915050565b600081519050610c9281610bb2565b92915050565b600080600080600060a08688031215610cb457610cb36108ec565b5b6000610cc288828901610c38565b9550506020610cd388828901610c6e565b9450506040610ce488828901610c83565b9350506060610cf588828901610c83565b9250506080610d0688828901610c38565b9150509295509295909350565b610d1c81610a59565b82525050565b6000604082019050610d376000830185610d13565b610d446020830184610a0f565b939250505056fea26469706673582212209fc8ad2c50a76ba11d3acc9998e302c847fe6dc1f4808ce7fdf7e7e170bb45e664736f6c63430008140033",
  "linkReferences": {},
  "deployedLinkReferences": {}
}