{
  "_format": "hh-sol-artifact-1",
  "contractName": "MockGoldOracle",
  "sourceName": "smart_contract/Gold_Price_Oracle_Mock.sol",
  "abi": [
    {
      "inputs": [
        {
          "internalType": "uint256",
          "name": "_price",
          "type": "uint256"
        }
      ],
      "stateMutability": "nonpayable",
      "type": "constructor"
    },
    {
      "inputs": [
        {
          "internalType": "address",
          "name": "owner",
          "type": "address"
        }
      ],
      "name": "OwnableInvalidOwner",
      "type": "error"
    },
    {
      "inputs": [
        {
          "internalType": "address",
          "name": "account",
          "type": "address"
        }
      ],
      "name": "OwnableUnauthorizedAccount",
      "type": "error"
    },
    {
      "anonymous": false,
      "inputs": [
        {
          "indexed": true,
          "internalType": "address",
          "name": "previousOwner",
          "type": "address"
        },
        {
          "indexed": true,
          "internalType": "address",
          "name": "newOwner",
          "type": "address"
        }
      ],
      "name": "OwnershipTransferred",
      "type": "event"
    },
    {
      "inputs": [],
      "name": "getGoldPrice",
      "outputs": [
        {
          "internalType": "uint256",
          "name": "",
          "type": "uint256"
        }
      ],
      "stateMutability": "view",
      "type": "function"
    },
    {
      "inputs": [],
      "name": "goldPrice",
      "outputs": [
        {
          "internalType": "uint256",
          "name": "",
          "type": "uint256"
        }
      ],
      "stateMutability": "view",
      "type": "function"
    },
    {
      "inputs": [],
      "name": "owner",
      "outputs": [
        {
          "internalType": "address",
          "name": "",
          "type": "address"
        }
      ],
      "stateMutability": "view",
      "type": "function"
    },
    {
      "inputs": [],
      "name": "renounceOwnership",
      "outputs": [],
      "stateMutability": "nonpayable",
      "type": "function"
    },
    {
      "inputs": [
        {
          "internalType": "uint256",
          "name": "_price",
          "type": "uint256"
        }
      ],
      "name": "setGoldPrice",
      "outputs": [],
      "stateMutability": "nonpayable",
      "type": "function"
    },
    {
      "inputs": [
        {
          "internalType": "address",
          "name": "newOwner",
          "type": "address"
        }
      ],
      "name": "transferOwnership",
      "outputs": [],
      "stateMutability": "nonpayable",
      "type": "function"
    }
  ],
  "bytecode": "0x608060405234801561001057600080fd5b50604051610711380380610711833981810160405281019061003291906101c1565b33600073ffffffffffffffffffffffffffffffffffffffff168173ffffffffffffffffffffffffffffffffffffffff16036100a55760006040517f1e4fbdf700000000000000000000000000000000000000000000000000000000815260040161009c919061022f565b60405180910390fd5b6100b4816100c260201b60201c565b50806001819055505061024a565b60008060009054906101000a900473ffffffffffffffffffffffffffffffffffffffff169050816000806101000a81548173ffffffffffffffffffffffffffffffffffffffff021916908373ffffffffffffffffffffffffffffffffffffffff1602179055508173ffffffffffffffffffffffffffffffffffffffff168173ffffffffffffffffffffffffffffffffffffffff167f8be0079c531659141344cd1fd0a4f28419497f9722a3daafe3b4186f6b6457e060405160405180910390a35050565b600080fd5b6000819050919050565b61019e8161018b565b81146101a957600080fd5b50565b6000815190506101bb81610195565b92915050565b6000602082840312156101d7576101d6610186565b5b60006101e5848285016101ac565b91505092915050565b600073ffffffffffffffffffffffffffffffffffffffff82169050919050565b6000610219826101ee565b9050919050565b6102298161020e565b82525050565b60006020820190506102446000830184610220565b92915050565b6104b8806102596000396000f3fe608060405234801561001057600080fd5b50600436106100625760003560e01c80632d02a5b2146100675780634450140414610083578063715018a6146100a15780638da5cb5b146100ab578063da6bae10146100c9578063f2fde38b146100e7575b600080fd5b610081600480360381019061007c9190610376565b610103565b005b61008b610115565b60405161009891906103b2565b60405180910390f35b6100a961011b565b005b6100b361012f565b6040516100c0919061040e565b60405180910390f35b6100d1610158565b6040516100de91906103b2565b60405180910390f35b61010160048036038101906100fc9190610455565b610162565b005b61010b6101e8565b8060018190555050565b60015481565b6101236101e8565b61012d600061026f565b565b60008060009054906101000a900473ffffffffffffffffffffffffffffffffffffffff16905090565b6000600154905090565b61016a6101e8565b600073ffffffffffffffffffffffffffffffffffffffff168173ffffffffffffffffffffffffffffffffffffffff16036101dc5760006040517f1e4fbdf70000000000000000000000000000000000000000000000000000000081526004016101d3919061040e565b60405180910390fd5b6101e58161026f565b50565b6101f0610333565b73ffffffffffffffffffffffffffffffffffffffff1661020e61012f565b73ffffffffffffffffffffffffffffffffffffffff161461026d57610231610333565b6040517f118cdaa7000000000000000000000000000000000000000000000000000000008152600401610264919061040e565b60405180910390fd5b565b60008060009054906101000a900473ffffffffffffffffffffffffffffffffffffffff169050816000806101000a81548173ffffffffffffffffffffffffffffffffffffffff021916908373ffffffffffffffffffffffffffffffffffffffff1602179055508173ffffffffffffffffffffffffffffffffffffffff168173ffffffffffffffffffffffffffffffffffffffff167f8be0079c531659141344cd1fd0a4f28419497f9722a3daafe3b4186f6b6457e060405160405180910390a35050565b600033905090565b600080fd5b6000819050919050565b61035381610340565b811461035e57600080fd5b50565b6000813590506103708161034a565b92915050565b60006020828403121561038c5761038b61033b565b5b600061039a84828501610361565b91505092915050565b6103ac81610340565b82525050565b60006020820190506103c760008301846103a3565b92915050565b600073ffffffffffffffffffffffffffffffffffffffff82169050919050565b60006103f8826103cd565b9050919050565b610408816103ed565b82525050565b600060208201905061042360008301846103ff565b92915050565b610432816103ed565b811461043d57600080fd5b50565b60008135905061044f81610429565b92915050565b60006020828403121561046b5761046a61033b565b5b600061047984828501610440565b9150509291505056fea2646970667358221220ee2077b695d31b7d2a069ec5962b7971b65e2f80d46525e948ab61f0979a0b6164736f6c63430008140033",
  "linkReferences": {},
  "deployedLinkReferences": {}
}