{
  "_format": "hh-sol-artifact-1",
  "contractName": "Treasury",
  "sourceName": "smart_contract/Treasury_EMASX.sol",
  "abi": [
    {
      "inputs": [
        {
          "internalType": "address",
          "name": "_idrx",
          "type": "address"
        }
      ],
      "stateMutability": "nonpayable",
      "type": "constructor"
    },
    {
      "inputs": [
        {
          "internalType": "address",
          "name": "owner",
          "type": "address"
        }
      ],
      "name": "OwnableInvalidOwner",
      "type": "error"
    },
    {
      "inputs": [
        {
          "internalType": "address",
          "name": "account",
          "type": "address"
        }
      ],
      "name": "OwnableUnauthorizedAccount",
      "type": "error"
    },
    {
      "anonymous": false,
      "inputs": [
        {
          "indexed": true,
          "internalType": "address",
          "name": "previousOwner",
          "type": "address"
        },
        {
          "indexed": true,
          "internalType": "address",
          "name": "newOwner",
          "type": "address"
        }
      ],
      "name": "OwnershipTransferred",
      "type": "event"
    },
    {
      "inputs": [],
      "name": "idrx",
      "outputs": [
        {
          "internalType": "contract IERC20",
          "name": "",
          "type": "address"
        }
      ],
      "stateMutability": "view",
      "type": "function"
    },
    {
      "inputs": [],
      "name": "owner",
      "outputs": [
        {
          "internalType": "address",
          "name": "",
          "type": "address"
        }
      ],
      "stateMutability": "view",
      "type": "function"
    },
    {
      "inputs": [],
      "name": "renounceOwnership",
      "outputs": [],
      "stateMutability": "nonpayable",
      "type": "function"
    },
    {
      "inputs": [
        {
          "internalType": "address",
          "name": "newOwner",
          "type": "address"
        }
      ],
      "name": "transferOwnership",
      "outputs": [],
      "stateMutability": "nonpayable",
      "type": "function"
    },
    {
      "inputs": [
        {
          "internalType": "address",
          "name": "to",
          "type": "address"
        },
        {
          "internalType": "uint256",
          "name": "amount",
          "type": "uint256"
        }
      ],
      "name": "withdraw",
      "outputs": [],
      "stateMutability": "nonpayable",
      "type": "function"
    }
  ],
  "bytecode": "0x608060405234801561001057600080fd5b506040516108c93803806108c983398181016040528101906100329190610223565b33600073ffffffffffffffffffffffffffffffffffffffff168173ffffffffffffffffffffffffffffffffffffffff16036100a55760006040517f1e4fbdf700000000000000000000000000000000000000000000000000000000815260040161009c919061025f565b60405180910390fd5b6100b4816100fc60201b60201c565b5080600160006101000a81548173ffffffffffffffffffffffffffffffffffffffff021916908373ffffffffffffffffffffffffffffffffffffffff1602179055505061027a565b60008060009054906101000a900473ffffffffffffffffffffffffffffffffffffffff169050816000806101000a81548173ffffffffffffffffffffffffffffffffffffffff021916908373ffffffffffffffffffffffffffffffffffffffff1602179055508173ffffffffffffffffffffffffffffffffffffffff168173ffffffffffffffffffffffffffffffffffffffff167f8be0079c531659141344cd1fd0a4f28419497f9722a3daafe3b4186f6b6457e060405160405180910390a35050565b600080fd5b600073ffffffffffffffffffffffffffffffffffffffff82169050919050565b60006101f0826101c5565b9050919050565b610200816101e5565b811461020b57600080fd5b50565b60008151905061021d816101f7565b92915050565b600060208284031215610239576102386101c0565b5b60006102478482850161020e565b91505092915050565b610259816101e5565b82525050565b60006020820190506102746000830184610250565b92915050565b610640806102896000396000f3fe608060405234801561001057600080fd5b50600436106100575760003560e01c8063715018a61461005c5780638da5cb5b14610066578063e172c60914610084578063f2fde38b146100a2578063f3fef3a3146100be575b600080fd5b6100646100da565b005b61006e6100ee565b60405161007b9190610404565b60405180910390f35b61008c610117565b604051610099919061047e565b60405180910390f35b6100bc60048036038101906100b791906104ca565b61013d565b005b6100d860048036038101906100d3919061052d565b6101c3565b005b6100e2610270565b6100ec60006102f7565b565b60008060009054906101000a900473ffffffffffffffffffffffffffffffffffffffff16905090565b600160009054906101000a900473ffffffffffffffffffffffffffffffffffffffff1681565b610145610270565b600073ffffffffffffffffffffffffffffffffffffffff168173ffffffffffffffffffffffffffffffffffffffff16036101b75760006040517f1e4fbdf70000000000000000000000000000000000000000000000000000000081526004016101ae9190610404565b60405180910390fd5b6101c0816102f7565b50565b6101cb610270565b600160009054906101000a900473ffffffffffffffffffffffffffffffffffffffff1673ffffffffffffffffffffffffffffffffffffffff1663a9059cbb83836040518363ffffffff1660e01b815260040161022892919061057c565b6020604051808303816000875af1158015610247573d6000803e3d6000fd5b505050506040513d601f19601f8201168201806040525081019061026b91906105dd565b505050565b6102786103bb565b73ffffffffffffffffffffffffffffffffffffffff166102966100ee565b73ffffffffffffffffffffffffffffffffffffffff16146102f5576102b96103bb565b6040517f118cdaa70000000000000000000000000000000000000000000000000000000081526004016102ec9190610404565b60405180910390fd5b565b60008060009054906101000a900473ffffffffffffffffffffffffffffffffffffffff169050816000806101000a81548173ffffffffffffffffffffffffffffffffffffffff021916908373ffffffffffffffffffffffffffffffffffffffff1602179055508173ffffffffffffffffffffffffffffffffffffffff168173ffffffffffffffffffffffffffffffffffffffff167f8be0079c531659141344cd1fd0a4f28419497f9722a3daafe3b4186f6b6457e060405160405180910390a35050565b600033905090565b600073ffffffffffffffffffffffffffffffffffffffff82169050919050565b60006103ee826103c3565b9050919050565b6103fe816103e3565b82525050565b600060208201905061041960008301846103f5565b92915050565b6000819050919050565b600061044461043f61043a846103c3565b61041f565b6103c3565b9050919050565b600061045682610429565b9050919050565b60006104688261044b565b9050919050565b6104788161045d565b82525050565b6000602082019050610493600083018461046f565b92915050565b600080fd5b6104a7816103e3565b81146104b257600080fd5b50565b6000813590506104c48161049e565b92915050565b6000602082840312156104e0576104df610499565b5b60006104ee848285016104b5565b91505092915050565b6000819050919050565b61050a816104f7565b811461051557600080fd5b50565b60008135905061052781610501565b92915050565b6000806040838503121561054457610543610499565b5b6000610552858286016104b5565b925050602061056385828601610518565b9150509250929050565b610576816104f7565b82525050565b600060408201905061059160008301856103f5565b61059e602083018461056d565b9392505050565b60008115159050919050565b6105ba816105a5565b81146105c557600080fd5b50565b6000815190506105d7816105b1565b92915050565b6000602082840312156105f3576105f2610499565b5b6000610601848285016105c8565b9150509291505056fea2646970667358221220c2b8e81b59913b831cf572e2ed9e66986075ada890b9c440199e8b44ab09cdc064736f6c63430008140033",
  "linkReferences": {},
  "deployedLinkReferences": {}
}