{
  "_format": "hh-sol-artifact-1",
  "contractName": "EMASXSwap",
  "sourceName": "smart_contract/Swap_EMASX-IDRX.sol",
  "abi": [
    {
      "inputs": [
        {
          "internalType": "address",
          "name": "_idrx",
          "type": "address"
        },
        {
          "internalType": "address",
          "name": "_emasx",
          "type": "address"
        },
        {
          "internalType": "address",
          "name": "_oracle",
          "type": "address"
        },
        {
          "internalType": "address",
          "name": "_treasury",
          "type": "address"
        }
      ],
      "stateMutability": "nonpayable",
      "type": "constructor"
    },
    {
      "inputs": [],
      "name": "emasx",
      "outputs": [
        {
          "internalType": "contract IEMASX",
          "name": "",
          "type": "address"
        }
      ],
      "stateMutability": "view",
      "type": "function"
    },
    {
      "inputs": [],
      "name": "feeBps",
      "outputs": [
        {
          "internalType": "uint256",
          "name": "",
          "type": "uint256"
        }
      ],
      "stateMutability": "view",
      "type": "function"
    },
    {
      "inputs": [],
      "name": "idrx",
      "outputs": [
        {
          "internalType": "contract IERC20",
          "name": "",
          "type": "address"
        }
      ],
      "stateMutability": "view",
      "type": "function"
    },
    {
      "inputs": [],
      "name": "oracle",
      "outputs": [
        {
          "internalType": "contract IOracle",
          "name": "",
          "type": "address"
        }
      ],
      "stateMutability": "view",
      "type": "function"
    },
    {
      "inputs": [
        {
          "internalType": "uint256",
          "name": "emasxAmount",
          "type": "uint256"
        }
      ],
      "name": "swapEMASXToIDRX",
      "outputs": [],
      "stateMutability": "nonpayable",
      "type": "function"
    },
    {
      "inputs": [
        {
          "internalType": "uint256",
          "name": "idrxAmount",
          "type": "uint256"
        }
      ],
      "name": "swapIDRXToEMASX",
      "outputs": [],
      "stateMutability": "nonpayable",
      "type": "function"
    },
    {
      "inputs": [],
      "name": "treasury",
      "outputs": [
        {
          "internalType": "address",
          "name": "",
          "type": "address"
        }
      ],
      "stateMutability": "view",
      "type": "function"
    }
  ],
  "bytecode": "0x6080604052600f60035534801561001557600080fd5b50604051610c79380380610c79833981810160405281019061003791906101a6565b836000806101000a81548173ffffffffffffffffffffffffffffffffffffffff021916908373ffffffffffffffffffffffffffffffffffffffff16021790555082600160006101000a81548173ffffffffffffffffffffffffffffffffffffffff021916908373ffffffffffffffffffffffffffffffffffffffff16021790555081600260006101000a81548173ffffffffffffffffffffffffffffffffffffffff021916908373ffffffffffffffffffffffffffffffffffffffff16021790555080600460006101000a81548173ffffffffffffffffffffffffffffffffffffffff021916908373ffffffffffffffffffffffffffffffffffffffff1602179055505050505061020d565b600080fd5b600073ffffffffffffffffffffffffffffffffffffffff82169050919050565b600061017382610148565b9050919050565b61018381610168565b811461018e57600080fd5b50565b6000815190506101a08161017a565b92915050565b600080600080608085870312156101c0576101bf610143565b5b60006101ce87828801610191565b94505060206101df87828801610191565b93505060406101f087828801610191565b925050606061020187828801610191565b91505092959194509250565b610a5d8061021c6000396000f3fe608060405234801561001057600080fd5b506004361061007d5760003560e01c806361d027b31161005b57806361d027b3146100d85780636d5f68fd146100f65780637dc0d1d014610114578063e172c609146101325761007d565b806324a9d853146100825780632df6a08c146100a057806336de77ba146100bc575b600080fd5b61008a610150565b6040516100979190610654565b60405180910390f35b6100ba60048036038101906100b591906106a0565b610156565b005b6100d660048036038101906100d191906106a0565b610396565b005b6100e06105a5565b6040516100ed919061070e565b60405180910390f35b6100fe6105cb565b60405161010b9190610788565b60405180910390f35b61011c6105f1565b60405161012991906107c4565b60405180910390f35b61013a610617565b6040516101479190610800565b60405180910390f35b60035481565b6000600260009054906101000a900473ffffffffffffffffffffffffffffffffffffffff1673ffffffffffffffffffffffffffffffffffffffff1663da6bae106040518163ffffffff1660e01b8152600401602060405180830381865afa1580156101c5573d6000803e3d6000fd5b505050506040513d601f19601f820116820180604052508101906101e99190610830565b90506000612710600354846101fe919061088c565b61020891906108fd565b905060008184610218919061092e565b9050600083670de0b6b3a764000083610231919061088c565b61023b91906108fd565b905060008054906101000a900473ffffffffffffffffffffffffffffffffffffffff1673ffffffffffffffffffffffffffffffffffffffff166323b872dd33600460009054906101000a900473ffffffffffffffffffffffffffffffffffffffff16886040518463ffffffff1660e01b81526004016102bc93929190610962565b6020604051808303816000875af11580156102db573d6000803e3d6000fd5b505050506040513d601f19601f820116820180604052508101906102ff91906109d1565b50600160009054906101000a900473ffffffffffffffffffffffffffffffffffffffff1673ffffffffffffffffffffffffffffffffffffffff166340c10f1933836040518363ffffffff1660e01b815260040161035d9291906109fe565b600060405180830381600087803b15801561037757600080fd5b505af115801561038b573d6000803e3d6000fd5b505050505050505050565b6000600260009054906101000a900473ffffffffffffffffffffffffffffffffffffffff1673ffffffffffffffffffffffffffffffffffffffff1663da6bae106040518163ffffffff1660e01b8152600401602060405180830381865afa158015610405573d6000803e3d6000fd5b505050506040513d601f19601f820116820180604052508101906104299190610830565b90506000670de0b6b3a76400008284610442919061088c565b61044c91906108fd565b9050600160009054906101000a900473ffffffffffffffffffffffffffffffffffffffff1673ffffffffffffffffffffffffffffffffffffffff16639dc29fac33856040518363ffffffff1660e01b81526004016104ab9291906109fe565b600060405180830381600087803b1580156104c557600080fd5b505af11580156104d9573d6000803e3d6000fd5b5050505060008054906101000a900473ffffffffffffffffffffffffffffffffffffffff1673ffffffffffffffffffffffffffffffffffffffff166323b872dd600460009054906101000a900473ffffffffffffffffffffffffffffffffffffffff1633846040518463ffffffff1660e01b815260040161055c93929190610962565b6020604051808303816000875af115801561057b573d6000803e3d6000fd5b505050506040513d601f19601f8201168201806040525081019061059f91906109d1565b50505050565b600460009054906101000a900473ffffffffffffffffffffffffffffffffffffffff1681565b600160009054906101000a900473ffffffffffffffffffffffffffffffffffffffff1681565b600260009054906101000a900473ffffffffffffffffffffffffffffffffffffffff1681565b60008054906101000a900473ffffffffffffffffffffffffffffffffffffffff1681565b6000819050919050565b61064e8161063b565b82525050565b60006020820190506106696000830184610645565b92915050565b600080fd5b61067d8161063b565b811461068857600080fd5b50565b60008135905061069a81610674565b92915050565b6000602082840312156106b6576106b561066f565b5b60006106c48482850161068b565b91505092915050565b600073ffffffffffffffffffffffffffffffffffffffff82169050919050565b60006106f8826106cd565b9050919050565b610708816106ed565b82525050565b600060208201905061072360008301846106ff565b92915050565b6000819050919050565b600061074e610749610744846106cd565b610729565b6106cd565b9050919050565b600061076082610733565b9050919050565b600061077282610755565b9050919050565b61078281610767565b82525050565b600060208201905061079d6000830184610779565b92915050565b60006107ae82610755565b9050919050565b6107be816107a3565b82525050565b60006020820190506107d960008301846107b5565b92915050565b60006107ea82610755565b9050919050565b6107fa816107df565b82525050565b600060208201905061081560008301846107f1565b92915050565b60008151905061082a81610674565b92915050565b6000602082840312156108465761084561066f565b5b60006108548482850161081b565b91505092915050565b7f4e487b7100000000000000000000000000000000000000000000000000000000600052601160045260246000fd5b60006108978261063b565b91506108a28361063b565b92508282026108b08161063b565b915082820484148315176108c7576108c661085d565b5b5092915050565b7f4e487b7100000000000000000000000000000000000000000000000000000000600052601260045260246000fd5b60006109088261063b565b91506109138361063b565b925082610923576109226108ce565b5b828204905092915050565b60006109398261063b565b91506109448361063b565b925082820390508181111561095c5761095b61085d565b5b92915050565b600060608201905061097760008301866106ff565b61098460208301856106ff565b6109916040830184610645565b949350505050565b60008115159050919050565b6109ae81610999565b81146109b957600080fd5b50565b6000815190506109cb816109a5565b92915050565b6000602082840312156109e7576109e661066f565b5b60006109f5848285016109bc565b91505092915050565b6000604082019050610a1360008301856106ff565b610a206020830184610645565b939250505056fea2646970667358221220d1a82ce715f811e6b206cd21adca5cf598b5b7f9ec416ac0a22f3d56ea24a16a64736f6c63430008140033",
  "linkReferences": {},
  "deployedLinkReferences": {}
}